:020000040800F2
:1000000090070020E1010008E91100082B1000080A
:10001000E5110008750900084318000800000000F9
:10002000000000000000000000000000490100087E
:10003000E90C0008000000008D010008CD14000844
:10004000FB010008FB010008FB010008FB010008A0
:10005000FB010008FB010008690D0008FB01000816
:10006000FB010008FB010008FB010008FB01000880
:10007000FB010008FB010008FB010008FB01000870
:10008000FB010008FB010008FB010008FB01000860
:10009000FB010008FB010008FB010008FB01000850
:1000A000FB010008FB010008FB010008FB01000840
:1000B000FB010008FB010008FB010008FB01000830
:1000C000FB010008FB010008FB010008FB01000820
:1000D000FB010008CD150008FD150008FB01000814
:1000E000810D0008FB010008FB010008FB0100086E
:1000F000FB010008FB010008FB010008FB010008F0
:10010000FB010008FB010008FB010008FB010008DF
:10011000FB010008FB01000875150008FB01000841
:10012000FB010008FB010008FB010008FB010008BF
:10013000DFF810D000F08CFB00480047592500087C
:10014000AFF3008090070020224B19680868B0E8E0
:10015000F00F80F30988BFF36F8F4FF0000080F33A
:1001600011884EF00D0E7047000000000648006830
:10017000006880F3088862B661B6BFF34F8FBFF3A3
:100180006F8F00DF00BF00BF08ED00E0EFF30980D4
:10019000BFF36F8F0F4B1A6820E9F00F106008B59E
:1001A0004FF0500080F31188BFF34F8FBFF36F8F74
:1001B00002F01CFA4FF0000080F31188BDE80840FF
:1001C00019680868B0E8F00F80F30988BFF36F8FF3
:1001D000704700BF6C000020EFF3058070470000FF
:1001E0000648804706480047FEE7FEE7FEE7FEE7D1
:1001F000FEE7FEE7FEE7FEE7FEE7FEE7151500086F
:1002000031010008D2B201E000F8012B491EFBD2F7
:1002100070470022F6E710B513460A460446194611
:10022000FFF7F0FF204610BD421C10F8011B00290B
:10023000FBD1801A704710B5002200E0521C835C8D
:100240008C5CA34201D1002BF8D1D8B2E1B2401AA4
:1002500010BD30B505460020034600E05B1C93420C
:1002600005D2EC5CC85C201A01D1002CF6D130BD5F
:100270002DE9FE4F804681EA0300C00F0C46009036
:1002800021F0004123F00045B8EB0200A94105D25E
:100290004046214690461C460B46024623F000404D
:1002A000104347D0270DC7F30A00C3F30A51029049
:1002B000401A019040286BDAC3F3130040F4801B0E
:1002C0000098924620B10023D2EB030A63EB0B0B9C
:1002D00001985946C0F14002504600F0D4F9064654
:1002E0000D4650465946019A00F0DCF910EB080023
:1002F0006141002487EA115284EAE7731A4340D02F
:10030000009A62B3019A012A4FEA075215DC001BDA
:1003100061EB02014FF0004202EA0752CDE90042D0
:10032000001C41F5801132462B4600F013FA03B051
:10033000BDE8F08F40462146F9E7001B61EB020162
:10034000001C41F5801300185B412018A2F500172E
:1003500047EB030140EAD570B6196D4111E06D0815
:100360004FEA360645EAC0754FEA0752001B61EBBB
:100370000201001C41F5801149084FEA30000019C4
:10038000514132462B4603B0BDE8F04F00F0D3B9DF
:100390000098012240000023D0EB020263EBE073DF
:1003A000009821464FEAE074B8EB000061EB0401CD
:1003B000E9E783F000435BE781F0004158E72DE96E
:1003C000FE4F81EA030404F0004421F00041009450
:1003D0004FF0000B23F0004350EA01045ED052EAD4
:1003E00003045BD0C3F30A54C1F30A552C44A4F2AE
:1003F000F3340194A0FB0254C1F3130141F48011C2
:10040000C3F3130343F4801301FB024400FB034EC8
:10041000840A970A44EA815447EA8357A4FB076891
:1004200002958D0A05FB07854FEA932C04FB0C54BB
:100430002705029D4FEA065847EA1637B5EB08052F
:100440006EEB070C870E920E47EA811742EA831281
:10045000A7FB0201B6EB0B0164EB00042B0D43EA92
:100460000C335E1844EB1C50DA465146E7FB0201A0
:10047000C5F313044FEA0B3343EA14534FEA043233
:10048000019C43EA0603A4F10C040294009CCDE90C
:1004900000B400F05FF903B0BDE8F08F0020014622
:1004A000F9E72DE9F04D81EA030404F0004B21F057
:1004B000004514464FF0000A23F0004150EA0502BF
:1004C00020D054EA01021DD0C5F30A570246C5F3F5
:1004D0001303C1F31300C1F30A5640F4801543F42B
:1004E0008013A7EB0608101BD64608F2FD3873EB05
:1004F000050002D308F1010801E092185B41B8F150
:10050000000F03DA00200146BDE8F08D00204FF413
:100510008011064684460EE0171B73EB050705D3D2
:10052000121B63EB050306434CEA010C49084FEA32
:10053000300092185B4150EA0107EDD152EA030006
:1005400012D082EA040083EA0501084305D0101B9B
:10055000AB4106D20122002306E000224FF0004307
:1005600002E06FF0010253101AEB06004CEB085149
:1005700010EB0A0041EB0B01BDE8F04D00F0DBB8D9
:100580000EB540F2334102910021CDE900110A4637
:100590000B4600F0DFF803B000BD00F0004230F081
:1005A00000400AD0C10D01F56071C0F3160042EAA7
:1005B0000151C208400711437047002001467047AF
:1005C00001F0004330B421F0004150EA010206D0AE
:1005D0000A0DA2F56072C1F31301002A02DC30BCDF
:1005E00000207047440F44EAC104C100E01830BC49
:1005F00000EBC25000F068B830B50B460146002051
:100600002022012409E021FA02F59D4205D303FAD4
:1006100002F5491B04FA02F52844151EA2F1010255
:10062000F1DC30BD2DE9F05F0546002092469B4687
:1006300088460646814640241BE0284641464746F8
:10064000224600F017F953465A46C01A914110D37A
:1006500011461846224600F016F82D1A67EB0108DD
:100660004F4622460120002100F00DF817EB00094B
:100670004E41201EA4F10104DFDC484631462A46E3
:100680004346BDE8F09F202A04DB203A00FA02F13D
:10069000002070479140C2F1200320FA03F3194370
:1006A00090407047202A06DBCB17203A41FA02F02F
:1006B00043EAE07306E041FA02F3D040C2F12002BF
:1006C00091400843194670470029A8BF7047401C55
:1006D000490008BF20F00100704710B4B0FA80FC58
:1006E00000FA0CF050EA010404BF10BC704749B195
:1006F000CCF1200421FA04F411FA0CF118BF012105
:1007000021430843A3EB0C01CB1D4FEA00614FEAE4
:10071000102042BF002010BC704700EBC3501044B3
:100720000029A4BF10BC7047401C490008BF20F03E
:10073000010010BC704710B5141E73F1000408DAF4
:10074000401C41F1000192185B411A4301D120F095
:10075000010010BD2DE9F04D92469B4611B1B1FA52
:1007600081F202E0B0FA80F220329046FFF78BFF70
:1007700004460F4640EA0A0041EA0B0153465A4636
:10078000084313D0114653EA010019D0C8F14002C2
:10079000504600F06FF805460E4650465946424610
:1007A000FFF771FF084305D0012004E020463946D9
:1007B000BDE8F08D0020054346EAE0762C43374340
:1007C0000A986305E40AA0EB08000022FD0A44EA47
:1007D00047540A3002D500200146E9E70105101907
:1007E0006941DDE9084500196941BDE8F04DA2E71E
:1007F000C1F30A52C1F3130140F2FF3341F48011F7
:100800009A4202DA00200146704740F233439A428E
:10081000A2F2334202DC524200F02CB8FFF733BFA1
:1008200030B5041E71F1000404DB4FF00044404277
:1008300064EB0101141E73F1000405DB1C464FF04C
:100840000043524263EB0403994208BF904230BD1B
:10085000064C074D06E0E06840F0010394E807000D
:1008600098471034AC42F6D3FFF766FC1029000815
:1008700030290008202A04DB203A21FA02F0002166
:10088000704721FA02F3D040C2F1200291400843A0
:100890001946704770B54FF4A06000F0DFFC2148A6
:1008A00000684FF47A72B0FBF2F1B1F1807F00D3AF
:1008B0001DE021F07F40401E4FF0E02250615017B4
:1008C0000F22002807DA13071E0E174B00F00F0542
:1008D0002D1F5E5503E013071D0E144B1D5400BF62
:1008E00000204FF0E02290610720106100BF00243B
:1008F00001F086F800F02AFC00F0C0FB00F000F9DF
:100900000BA001F0AFF811A001F0ACF800BF01F0AE
:1009100025FD84B2214611A001F0A4F8002CF6D1E7
:1009200070BD00000000002018ED00E000E400E0D1
:10093000BBB6D3ADCAB9D3C3D2B0BBF053544D3359
:1009400032BFAAB7A2B0E50D0A0000004C696E6B79
:10095000696E672E2E2E0D0A000000000A65727265
:100960006F7220636F64653A2020202025640D0A91
:100970000000000000BFFEE770B50D2222A126484E
:10098000FFF767FC00283DD1002433E023480068CE
:10099000FFF74AFC0546204908192A461F490968FD
:1009A000FFF757FC60B900BF2046611CCCB21A4962
:1009B000085C3A28F8D10846005D303818490870BC
:1009C00018480068FFF730FC0546134908192A4605
:1009D00014490968FFF73DFC60B900BF2046611C5F
:1009E000CCB20D49085C3A28F8D10846005D303891
:1009F0000D4908702046611CCCB20749085C0028EC
:100A0000C4D100BF70BD00002B4D5154545355420A
:100A1000524543563A000000C00000203C00002030
:100A20001C000020400000201D00002008B501210E
:100A3000402000F05DFC4020ADF8000010208DF853
:100A4000030003208DF802006946024800F040FAD6
:100A500008BD0000001801402DE9F04F87B0824624
:100A60008B4604A800F0A6F8002843D19DF8110099
:100A7000FFF786FD804600221F4BFFF7A0FC0022F7
:100A80001E4BCDE90001FFF70CFD04460D469DF815
:100A90001000FFF775FD064622462B46FFF7E8FBE0
:100AA000CDE90201FFF78CFDCAF800009DF81300A4
:100AB000FFF766FD0022104BCDE90001FFF77FFC38
:100AC000064600220D4BFFF7ECFC04460D469DF850
:100AD0001200FFF755FD804622462B46FFF7C8FB64
:100AE000CDE90201FFF76CFDCBF80000002007B054
:100AF000BDE8F08F0120FAE70000F03F000024403D
:100B000010B5FFF793FF4021014800F077FA10BDC0
:100B10000018014008B54020ADF8000048208DF8CD
:100B200003006946014800F0D3F908BD00180140F0
:100B300008B54020ADF8000010208DF80300032018
:100B40008DF802006946024800F0C2F908BD0000B5
:100B50000018014070B50025002424E000BF4021AA
:100B6000134800F040FA0028F9D0282000F0CDF812
:100B700040210F4800F037FA01280DD100BF402175
:100B80000B4800F030FA0128F9D0C4F10701012028
:100B90008840C0B2054304E0C4F107010120884049
:100BA0008543601CC4B2082CD8DB284670BD000009
:100BB0000018014010B50446FFF7BAFF4021244851
:100BC00000F01AFA122000F090F84021204800F0BE
:100BD00015FA1E2000F099F8FFF79CFF40211C48F1
:100BE00000F001FA80BB00BF4021194800F0FBF97A
:100BF0000028F9D000BF4021154800F0F4F9012881
:100C0000F9D0FFF7A7FF2070FFF7A4FF6070FFF790
:100C1000A1FFA070FFF79EFFE070FFF79BFF207120
:100C2000FFF786FF40210A4800F0E8F92078617854
:100C30000844A1780844E17808442179884201D128
:100C4000002010BD0120FCE7FFE70120F9E70000CC
:100C5000001801402DE9FC410E490F48FFF7FCFE4A
:100C600090B90C480068FFF798FC04460D460A4806
:100C70000068FFF792FC064632460B4607A0CDE916
:100C8000004500F0EFFE02E012A000F0EBFEBDE830
:100C9000FC81000014000020180000200D0AB6C1DD
:100CA000C8A14448543131B3C9B9A621202020201D
:100CB0002020CAAAB6C8CEAA256620A3A5524820DD
:100CC000A3ACCEC2B6C8CEAA202566A1E6200D0AE6
:100CD00000000000526561642044485431312045D1
:100CE00052524F52210D0A007047002107E042F690
:100CF000E06100BF0A1EA1F1010399B2FAD1021E00
:100D0000A0F1010398B2F2D17047002106E00A2158
:100D100000BF0A1EA1F1010399B2FAD1021EA0F18F
:100D2000010398B2F3D1704710B500F051F818B92B
:100D300003A000F097FE02E006A000F093FE10BDB5
:100D40000D0A7075626C69736820737563636573EF
:100D5000730D0A000D0A7075626C69736820666114
:100D6000696C65640D0A000010B5012000F01CF8E4
:100D7000012804D100F026FA012000F00FF810BD80
:100D800010B54FF4005000F00FF8012805D100F025
:100D9000CDF94FF4005000F001F810BD0149086092
:100DA0007047000014040140014600200022074B58
:100DB0001B6803EA0102054B14331B680B4013B197
:100DC0000AB1012000E0002070470000000401404B
:100DD000F0B587B0FA211A48FFF71BFA19480068E6
:100DE000FFF7DBFB04460D4617480068FFF7D5FB0D
:100DF00006460F461548007815490978CDE9006781
:100E0000CDE90245CDE904101248134902681348A0
:100E100000F0FEFD00BF0A4800780028FBD1C82082
:100E2000FFF763FF06490EA000F01CFE0EA1044868
:100E3000FFF701FA10B9012007B0F0BD0020FBE771
:100E4000C000002018000020140000201D00002019
:100E50001C0000205C0000209C260008004400408C
:100E60000D0A25730D0A00004552524F5200000032
:100E700010B50446FA210C48FFF7CBF922460BA126
:100E8000104800F0C5FD00BF074800780028FBD1DE
:100E9000C820FFF72AFF0CA10348FFF7CCF908B9D7
:100EA000012010BD0020FCE7C000002041542B4D64
:100EB0005154545355423D302C222573222C310D70
:100EC0000A000000004400404552524F520000000A
:100ED0002DE9F041024600250026002000230024D1
:100EE000002791F803C00CF00F0591F803C00CF037
:100EF000100CBCF1000F03D091F802C04CEA0505BC
:100F000091F800C0BCF1000F31D0146800202BE034
:100F10004FF0010C0CFA00F3B1F800C00CEA030624
:100F20009E4220D183004FF00F0C0CFA03F7BC4314
:100F300005FA03FC4CEA040491F803C0BCF1280F45
:100F400006D14FF0010C0CFA00FCC2F814C00AE004
:100F500091F803C0BCF1480F05D14FF0010C0CFA19
:100F600000FCC2F810C0401C0828D1D31460B1F8AE
:100F700000C0BCF1FF0F34DD546800202EE000F10A
:100F8000080C4FF0010808FA0CF3B1F800C00CEAA5
:100F900003069E4221D183004FF00F0C0CFA03F799
:100FA000BC4305FA03FC4CEA040491F803C0BCF10D
:100FB000280F05D100F1080C08FA0CF8C2F81480CB
:100FC00091F803C0BCF1480F07D100F1080C4FF0B5
:100FD000010808FA0CF8C2F81080401C0828CED38B
:100FE0005460BDE8F0810246002093680B400BB1CD
:100FF000012000E0002070474161704701617047A7
:1010000070B505460E4631462846FFF7ECFF01282D
:1010100008D100BF31462846FFF7E5FF0128F9D087
:10102000012400E00024204670BD00BFFEE7000060
:1010300010B501210B48FFF7E3FF012804D10A494D
:1010400008700AA000F00EFD4FF400510848FFF7A9
:10105000D7FF012805D100200349087005A000F042
:1010600001FD10BD000801401C0000206F6E0A0049
:10107000001001406F66660A0000000008B50121FB
:10108000042000F035F90121102000F031F904208E
:101090008DF803000120ADF8000003208DF8020058
:1010A00069460848FFF714FF04208DF80300C002CA
:1010B000ADF8000003208DF8020069460248FFF7F2
:1010C00007FF08BD000801400010014010B50648A8
:1010D0000078012801D100F019F80348007808B918
:1010E00000F004F810BD00001C00002010B5202105
:1010F0000548FFF783FF01210348FFF77FFF022127
:101100000148FFF77BFF10BD000C014010B5202106
:101110000548FFF773FF01210348FFF76FFF022126
:101120000148FFF769FF10BD000C014010B52021F8
:101130000548FFF763FF01210348FFF75DFF022128
:101140000148FFF75BFF10BD000C014008B501210D
:10115000082000F0CDF810208DF803002020ADF815
:10116000000003208DF8020069461548FFF7B0FE25
:1011700020211348FFF742FF10208DF803000120C3
:10118000ADF8000003208DF8020069460C48FFF717
:101190009FFE01210A48FFF731FF10208DF8030060
:1011A0000220ADF8000003208DF8020069460448D3
:1011B000FFF78EFE02210248FFF720FF08BD000066
:1011C000000C014010B520210548FFF715FF012153
:1011D0000348FFF713FF02210148FFF70FFF10BD7F
:1011E000000C014000BFFEE77047000070B5002111
:1011F00000230F22C47804B3154C246804F4E0647F
:10120000C4F5E064210AC1F10403CA40447804FA39
:1012100003F184781440214309010E4C0678A1554E
:10122000047804F01F050124AC4005786D11AD0071
:1012300005F1E025C5F8004109E0047804F01F0538
:101240000124AC40044D0678761145F8264070BD67
:101250000CED00E000E400E080E100E00249014321
:10126000024A1160704700000000FA050CED00E032
:1012700008B525208DF8000001208DF8030003201B
:101280008DF801008DF802006846FFF7AFFF08BD3A
:1012900008B526208DF8000001208DF803000320FA
:1012A0008DF801008DF802006846FFF79FFF08BD2A
:1012B00008B527208DF8000001208DF803000320D9
:1012C0008DF801008DF802006846FFF78FFF08BD1A
:1012D00029B1064AD2690243044BDA6104E0034AA9
:1012E000D2698243014BDA6170470000001002406E
:1012F00029B1064A92690243044B9A6104E0034A09
:1013000092698243014B9A617047000000100240CD
:1013100030B500210022002400232D4D6D6805F01A
:101320000C0121B1042905D0082923D105E0294D5C
:10133000056022E0274D05601FE0254D6D6805F42E
:101340007012234D6D6805F48034022505EB92423E
:101350001CB9214D554305600BE01D4D6D6805F42A
:1013600000351DB11C4D5543056002E0194D554334
:10137000056002E0174D056000BF00BF144D6D68A9
:1013800005F0F0010909154D6B5C0568DD4045600D
:101390000F4D6D6805F4E061090A104D6B5C4568FE
:1013A000DD4085600A4D6D6805F46051C90A0B4D3A
:1013B0006B5C4568DD40C560054D6D6805F44041D6
:1013C000890B074D6B5CC568B5FBF3F5056130BD56
:1013D0000010024000127A0000093D00A800002021
:1013E000B800002010B500F001F810BD0CB50020C9
:1013F000019000903348006840F480303149086023
:1014000000BF3048006800F4003000900198401C94
:101410000190009818B90198B0F5A06FF1D1294852
:10142000006800F4003010B10120009001E00020BD
:1014300000900098012843D12348006840F0100034
:10144000214908600846006820F00300086008464B
:10145000006840F0020008601A4840681949486076
:101460000846406848600846406840F4806048602C
:101470000846406820F47C1048600846406840F404
:10148000E81048600846006840F08070086000BFBF
:101490000C48006800F000700028F9D00948406846
:1014A00020F00300074948600846406840F0020009
:1014B000486000BF0348406800F00C000828F9D1DC
:1014C0000CBD000000100240002002400E480068E1
:1014D000401C0D490860084600684FF47A61B0FB73
:1014E000F1F201FB120010B901200849086006481A
:1014F000006840F6B831B0FBF1F201FB120010B900
:10150000012003490860704768000020280000207F
:101510002400002010B51348006840F00100114974
:10152000086008464068104908400E49486008466F
:1015300000680E4908400B4908600846006820F41E
:10154000802008600846406820F4FE0048604FF4A0
:101550001F008860FFF746FF4FF0006004490860F5
:1015600010BD0000001002400000FFF8FFFFF6FE73
:1015700008ED00E010B50121084800F016F858B158
:101580000121064800F00EF80548006820B1044823
:101590000068401E0249086010BD000000100040B5
:1015A00064000020CA430282704730B50246002022
:1015B00000230024158A05EA0103958905EA010440
:1015C00013B10CB1012000E0002030BD10B540F295
:1015D0002551094800F070F801280CD1064800F0A8
:1015E00027F9C4B22146044800F027F940F22551FA
:1015F000014800F03FF810BD0038014010B540F23E
:101600002551194800F058F860B3174800F010F958
:1016100041B2164802780078401C144B18701448E8
:10162000815418460078801E1149085C0D2801D1AC
:10163000012000E000200D490978491E0C4A515C48
:101640000A2901D1012100E00021084350B1002105
:1016500006480078801E064A11540020034908708D
:10166000FFF78AF910BD0000004400402C00002064
:10167000C000002001F40072B2F5007F00D100BF6D
:10168000CA430280704721B1828942F400528281AC
:1016900004E082894DF6FF731A408281704702464A
:1016A0000020B1F5007F00D100BF13880B400BB1C3
:1016B000012000E00020704770B50246002400239E
:1016C0000025002040F66A16B14200D100BFC1F3E8
:1016D000421501F01F03012606FA03F3012D02D182
:1016E0009689334006E0022D02D1168A334001E08C
:1016F000968A33400C12012606FA04F41688344008
:1017000013B10CB1012000E0002070BDF0B503461C
:10171000002400260025002040F66A17B94200D1B7
:1017200000BF1846C1F3421401F01F06012707FA53
:1017300006F5012C01D10C3004E0022C01D110304F
:1017400000E014301AB107682F43076002E0076811
:10175000AF430760F0BD00002DE9F04786B00546B5
:101760000E460024A24600BFA1460027B08900B162
:1017700000BF2F462C8A4CF6FF700440F0880443CB
:101780002C82AC894EF6F3100440B08831890843AE
:10179000718908430443AC81AC8A4FF6FF40044092
:1017A000B0890443AC8201A8FFF7B2FD1F4887420D
:1017B00002D1DDF810A001E0DDF80CA0A88900F44A
:1017C000004040B10AEBCA0000EB0A103168490042
:1017D000B0FBF1F807E00AEBCA0000EB0A10316831
:1017E0008900B0FBF1F86420B8FBF0F00401200997
:1017F000642101FB1089A88900F4004040B1322027
:1018000000EBC900B0FBF1F000F00700044308E072
:10181000322000EB09106421B0FBF1F000F00F0062
:1018200004432C8106B0BDE8F08700000038014079
:1018300001468888C0F308007047C1F3080282801F
:10184000704700BFFEE7000000B585B0012104200D
:10185000FFF74EFD01218803FFF74AFD4FF40070AA
:10186000ADF8100018208DF8130003208DF8120039
:1018700004A91848FFF72CFB4FF48060ADF8100066
:1018800004208DF8130004A91248FFF721FBFFF78D
:10189000EFFC4FF4E13000900020ADF80C000C207C
:1018A000ADF80A000020ADF80800ADF80600ADF86C
:1018B000040069460848FFF74FFF012240F2255116
:1018C0000548FFF723FF01210348FFF7DCFE05B0C1
:1018D00000BD0000000801400038014000B585B09F
:1018E00001210420FFF704FD01214804FFF7F0FC6B
:1018F0000420ADF8100018208DF8130003208DF897
:10190000120004A91748FFF7E3FA0820ADF8100009
:1019100004208DF8130004A91248FFF7D9FAFFF745
:10192000B7FC4FF4E13000900020ADF80C000C2023
:10193000ADF80A000020ADF80800ADF80600ADF8DB
:10194000040069460848FFF707FF012240F22551CD
:101950000548FFF7DBFE01210348FFF794FE05B0C1
:1019600000BD0000000801400044004000B585B003
:1019700001210420FFF7BCFC01218804FFF7A8FC2B
:101980004FF48060ADF8100018208DF8130003208C
:101990008DF8120004A91848FFF79AFA4FF4006076
:1019A000ADF8100004208DF8130004A91248FFF7C9
:1019B0008FFAFFF77DFC4FF4E13000900020ADF886
:1019C0000C000C20ADF80A000020ADF80800ADF8BE
:1019D0000600ADF8040069460848FFF7BDFE012285
:1019E00040F225510548FFF791FE01210348FFF71A
:1019F0004AFE05B000BD0000000C01400048004058
:101A000010B5FFF721FFFFF769FFFFF7AFFF10BD2C
:101A10000FB4F8B5044608A800901148009A079939
:101A200000F030F8002000900D48FEF7FDFB064660
:101A300000BF208800F040000028FAD0002509E00F
:101A40000748405DA08000BF208800F040000028CB
:101A5000FAD06D1CB542F3D3F8BC5DF814FB00005E
:101A6000E20100200FB4054B10B503A9044A029807
:101A700000F0ECF810BC5DF814FB00003525000800
:101A8000BC00002037B514460846064B6A4621467E
:101A900000F0DCF804466946002000F05AFC2046BD
:101AA0003EBD00005323000802E008C8121F08C111
:101AB000002AFAD170477047002001E001C1121FCF
:101AC000002AFBD1704700002DE9FF5F82B00021A2
:101AD000DDE90430020DDDF840B0034318D044F6D0
:101AE0001050A2F2FF3242431514119801281FD062
:101AF000A5EB0B00401C5FEA000A4FF000064E4FBA
:101B0000DFF83891B046504615D5CAF1000413E00D
:101B1000119801244AA3012801D16FEA0B01029810
:101B2000119AC0E90031C0E9024206B0BDE8F09F59
:101B3000CBF10000DFE704460021404A491842EBA0
:101B40000450CDE9001012E0E00707D032463B46D2
:101B500040464946FEF733FC8046894632463B46BE
:101B600010461946FEF72BFC06460F466410002C63
:101B7000EAD1DDE90401DDE90023BAF1000F06DA5C
:101B8000FEF71DFC42464B46FEF719FC05E0FEF74A
:101B900088FC42464B46FEF784FC04460E46002273
:101BA000284BFEF73DFE03D84FF0FF30014607E01B
:101BB0000022254B20463146FEF75AFBFEF718FE61
:101BC000102409E0002C0ADB0A220023FEF72AFD7C
:101BD000039B30321A55641E50EA0102F2D1641C94
:101BE000039AC4F111031444119A012A03D001226B
:101BF00008430DD10AE0084304D000204FF0110B38
:101C0000119072E7A3EB0B056D1E0DE05B4504DD43
:101C10004FF0000205F1010504E003DA4FF0000285
:101C2000A5F10105002AECD002981199C0E9023112
:101C3000C0E9004579E70000000014400000F03FD3
:101C4000300000000000F0430000E03F2DE9FF4FAE
:101C500095B09A46884606460025EEE1252877D1BC
:101C600000242746F94A0121039400E0044316F8B2
:101C7000013F203B01FA03F01042F7D130782A28C7
:101C800011D06FF02F033078A0F13002092A16D856
:101C9000039A44F0020402EB820203EB4202104476
:101CA000761C0390EFE758F8042B0392002A03DA1E
:101CB000504244F40054039044F00204761C3078FF
:101CC0002E2816D116F8010F44F004042A280DD04E
:101CD0006FF02F023078A0F13003092B09D807EB01
:101CE000870302EB4303C718761CF3E758F8047B1D
:101CF000761C30786C280FD006DC4C2817D068286A
:101D00000DD06A2814D104E0742810D07A280FD19D
:101D10000DE044F400140AE044F4801401E044F4BB
:101D200040147278824202D104F58014761C761C2D
:101D3000307866280BD013DC582877D009DC0028CF
:101D400075D04528F6D04628F4D047281AD193E11B
:101D500018E0632835D0642879D0652812D18BE14A
:101D6000702873D008DC6728F1D069286FD06E28FE
:101D70000DD06F2806D1ACE073282CD0752874D014
:101D8000782853D05246179990476D1C54E1C4F3FC
:101D90000250022809D003280DD0D8F800100428DA
:101DA0000DD00D6008F1040846E1D8F80010EA17DC
:101DB000C1E90052F6E7D8F800100D80F2E70D7087
:101DC000F0E718F8041B8DF8001000208DF80100D2
:101DD000EB46012003E058F804BB4FF0FF306107E9
:101DE0004FF0000102D40DE009F101018946B9422A
:101DF0000FDA8145F8DB1BF809100029F4D108E05F
:101E000009F1010189468142FADB1BF8091000291A
:101E1000F6D103985346A0EB090721463846179A96
:101E200000F080FA284400EB090507E044E008E1EF
:101E30000DE01BF8010B524617999047B9F10109C3
:101E4000F7D2534621463846179AF2E039E00A2184
:101E5000C4F302524FF0000B0091022A06D058F84A
:101E6000040BC117032A09D00AE023E008F1070098
:101E700020F00702F2E80201904605E000B2C11727
:101E8000042A01D140B2C117002906DA0A4600210E
:101E9000404261EB02012D2202E0220504D52B22F3
:101EA0008DF80420012203E0E20701D02022F7E7A9
:101EB000914657E00A2100E010214FF0000B0091FD
:101EC0000BE010214FF0000B44F0040408270091B0
:101ED00003E008204FF0000B0090C4F30252022AE6
:101EE00005D058F8040B0021032A08D008E008F1B7
:101EF000070020F00702F2E80201904603E080B2FA
:101F0000042A00D1C0B24FF0000922072AD5327846
:101F1000702A07D0DDF800C08CF0100C5CEA0B0CC6
:101F200005D00EE040228DF80420012208E050EA9E
:101F3000010306D030238DF804308DF805200222ED
:101F40009146009B83F0080353EA0B030AD150EA41
:101F5000010201D1620705D530228DF804204FF02F
:101F600001097F1E3278582A04D039A20C920CAA9B
:101F700002920BE03BA2F9E75B46009AFEF752FBA8
:101F80000C9B9B5C029A521E0292137050EA010253
:101F9000F2D1029804A9081A00F1200B600702D5BB
:101FA00024F4803400E001275F4502DDA7EB0B003D
:101FB00000E0002000EB0B01009003984944401A18
:101FC0000390E00306D453462146179A039800F085
:101FD000A9F90544002706E001A85246C05D1799FB
:101FE00090476D1C7F1C4F45F6DBE0030CD5534634
:101FF0002146179A039800F095F9054404E0302033
:102000005246179990476D1C0099481E0090002970
:10201000F5DC08E00298029952460078491C0291CA
:10202000179990476D1CBBF10001ABF1010BF1DC7E
:102030005BE100F065F90544761C307800287FF4F8
:102040000DAE19B02846BDE8F08F00000928010048
:10205000303132333435363738396162636465661E
:1020600000000000303132333435363738394142E0
:102070004344454600000000600700D4062708F1ED
:10208000070020F00700F0E80223804603F0004C30
:102090005FEA0C0001D097A009E0200501D596A0C9
:1020A00005E0E00701D095A001E0AFF24C001390ED
:1020B000307823F0004365280CD006DC452809D091
:1020C00046281DD047287FD13BE0662818D06728D6
:1020D0007AD136E00021112F01DB112000E0781CBD
:1020E000CDE9000104A90CA8FFF7EEFCDDE90D0124
:1020F0000C9A4FF0000B07F10109109200914EE08D
:102100004FF000400097CDE9011004A90CA8FFF79B
:10211000DBFCDDE90D020C9B0F994FF0000B9146A3
:102120001093009211B9791C00EB0109B7EB09007B
:1021300003D4C0F1FF3B07F10109A9EB07000190AF
:1021400042E0012F00DA01270021112F01DD1120CB
:1021500000E03846CDE9000104A90CA8FFF7B4FC63
:10216000DDE90D010C9A00914FF0000BB946109279
:1021700021070FD4009A4A4503DA914601E0A9F1FC
:102180000109B9F1010F05DD109AA9F10101515CB6
:102190003029F4D0B84202DA10F1040F03DA012139
:1021A000CDE9011010E0002803DC8344A9EB000115
:1021B00002E0411C494500DD8946A0EB0B00401CB4
:1021C00001904FF000400290200705D40198484547
:1021D00002DB4FF0FF30019000208DF84B00029899
:1021E0000DF14B07B0F1004F25D002200C902B20B1
:1021F0000D90029800280CDA404202902D200D909C
:1022000007E00A210298FEF7F7F93031029007F84B
:10221000011D0C99481E0C900029F2DC0298002840
:10222000EFD1791E0D980870307800F0200040F052
:10223000450007F8020D11A8C01BC01D029013989D
:10224000007800B1012000EB0901019801EBE07179
:10225000029801440398401A401E0390E00306D4FC
:1022600053462146179A039800F05CF805441398EA
:10227000007818B15246179990476D1CE00323D59A
:1022800053462146179A039800F04CF805441BE08A
:10229000BBF1000F07DB0098584504DD1098179933
:1022A00010F80B0001E01799302052469047019832
:1022B0000BF1010B401E05F10105019004D12E2008
:1022C0005246179990476D1CB9F10001A9F1010917
:1022D000DEDC05E017F8010B5246179990476D1C9C
:1022E0000299481E02900029F4DC53462146179AB1
:1022F00003989EE62D0000002B0000002000000047
:102300002DE9F041044600251E461746880404D4F2
:1023100005E039462020B0476D1C641EF9D52846DB
:10232000BDE8F0812DE9F041044600251E469046A7
:10233000C80301D5302700E02027880404D505E034
:1023400041463846B0476D1C641EF9D52846BDE8A5
:10235000F0810A68531C0B601070704708B5FA21B1
:102360004348FDF756FF43A14548FFF751FB4FF4A3
:10237000FA60FEF7BAFCFA213D48FDF74AFF41A199
:102380003F48FFF745FB0A20FEF7AFFC3FA1384866
:10239000FDF751FF08B1012008BD3DA13848FFF706
:1023A00037FB4FF47A70FEF7A0FC38A13048FDF7F8
:1023B00042FF08B10220EFE7FA212D48FDF729FF7F
:1023C00037480368374838A102682D48FFF720FBDB
:1023D0004FF4FA60FEF789FC2CA12548FDF72BFF8E
:1023E00008B10320D8E7FA212148FDF712FF34484D
:1023F0000068009033480368334834A102682048DD
:10240000FFF706FB0A20FEF770FC20A11848FDF735
:1024100012FF08B10420BFE7FA211548FDF7F9FEC5
:10242000354836A102681648FFF7F2FA4FF47A7081
:10243000FEF75BFC15A10E48FDF7FDFE08B1052077
:10244000AAE7354835A102680D48FFF7E1FA4FF4D5
:10245000FA70FEF74AFC0DA10548FDF7ECFE08B145
:10246000052099E7FA210248FDF7D3FE002093E703
:10247000C000002041542B5253540D0A00000000AC
:1024800000440040415445300D0A00004F4B00000D
:1024900041542B43574D4F44453D310D0A00000038
:1024A000480000204400002041542B43574A41502B
:1024B0003D222573222C222573220D0A00000000E4
:1024C00054000020500000204C00002041542B4DAF
:1024D000515454555345524346473D302C312C22DC
:1024E0002573222C222573222C222573222C302C9A
:1024F000302C22220D0A00005800002041542B4DA0
:10250000515454434F4E4E3D302C222573222C31D2
:102510003838332C310D0A006000002041542B4D17
:102520005154545355423D302C222573222C310DE9
:102530000A00000070B504460D4600BF8021054822
:10254000FFF7ADF80028F9D0A1B20248FFF775F9FE
:10255000204670BD0038014014A0FFF783FAFEF753
:1025600099F914480068FEF783FC012803D112A0F2
:10257000FFF778FA02E015A0FFF774FA15E0FEF70E
:1025800057FDFEF7A3FD17480068012804D100207D
:1025900014490860FEF75EFB13480068012804D167
:1025A000002011490860FEF7BFFBE8E731203C201E
:1025B0002D310A00600000207375627363726962D6
:1025C00065206661696C65640A000000737562735A
:1025D0006372696265207375636365737365640A0A
:1025E00000000000240000202800002010B51B4837
:1025F000006818B101201A4908602DE00020184930
:10260000086018480068B0FA80F0C0F11F0404EBBD
:102610008400154951F8200008B1012000E0002095
:1026200028B940F6F62211A117A0FFF71BFA04EB18
:1026300084010D4A02EB810041684968416000F164
:10264000080142688A4202D1416849684160416894
:10265000C968114A116000BF10BD0000A40000202D
:102660009000002084000020AC0200202E2E5C2E62
:102670002E5C4672656552544F535C7372635C7492
:1026800061736B732E6300004572726F723A25732B
:102690002C25640D0A0000006C00002041542B4DD5
:1026A0005154545055423D302C222573222C227B0C
:1026B0005C226D6574686F645C223A5C22746869A0
:1026C0006E672E6576656E742E70726F70657274AB
:1026D000792E706F73745C225C2C5C227061726165
:1026E0006D735C223A7B5C2268756D6974757265E6
:1026F0003A74656D705C223A25665C2C5C226875C4
:102700006D69747572653A68756D695C223A256603
:102710005C2C5C227377697463683A7377697463BD
:10272000685F6C65645C223A25645C2C5C2273777C
:10273000697463683A7377697463685F626565702A
:102740005C223A25647D7D222C302C300D0A00005D
:102750005869616F6D695F36393036003230313516
:102760003135576569400000336363373062323179
:10277000626662616466383362356231333435389B
:1027800039323965633862303631643462656630B7
:10279000343765663365656235653632396430399C
:1027A0006364333237396163000000007377697402
:1027B00063685F6C6564000068756D690000000007
:1027C00061315A446C7279485433782E696F742D94
:1027D00061732D6D7174742E636E2D7368616E67F5
:1027E0006861692E616C6979756E63732E636F6DB4
:1027F000000000007377697463685F62656570004C
:1028000074656D70000000002F7379732F61315A69
:10281000446C7279485433782F34525678537A4F37
:102820005539453159726355534B7736392F746892
:10283000696E672F736572766963652F70726F704A
:10284000657274792F736574000000002F737973BB
:102850002F61315A446C7279485433782F34525670
:1028600078537A4F5539453159726355534B773602
:10287000392F7468696E672F6576656E742F707274
:102880006F70657274792F706F737400345256785C
:10289000537A4F5539453159726355534B77363911
:1028A0002661315A446C7279485433780000000034
:1028B00061315A446C7279485433782E34525678C8
:1028C000537A4F5539453159726355534B773639E1
:1028D0007C7365637572656D6F64653D325C2C73E6
:1028E00069676E6D6574686F643D686D6163736878
:1028F000613235365C2C74696D657374616D703D41
:10290000313637383839363236353631327C000098
:102910003029000800000020C0000000A81A0008AC
:10292000F0290008C0000020D0060000B81A0008F6
:1029300000A24A040000000000000000010203049D
:102940000607080900000000000000000000000069
:102950000000000000000000000000000000010076
:102960000100000000280008B8270008AC27000874
:10297000F4270008502700085C270008B02800084A
:102980008C28000868270008C02700084C28000889
:1029900008280008000000000000000000000000FF
:1029A0000000000000000000000000000000000027
:1029B0000000000000000000000000000000000017
:1029C0000000000000000000000000000000000007
:1029D00000000000000000000000000001020304ED
:1029E00001020304060708090204060800000000AB
:0400000508000131BD
:00000001FF
